:100000000C9446000C945D000C945D000C945D0013
:100010000C945D000C945D000C945D000C945D00EC
:100020000C945D000C945D000C945D000C945D00DC
:100030000C945D000C945D000C945D000C945D00CC
:100040000C945D000C945D000C945D000C945D00BC
:100050000C945D000C945D000C945D000C945D00AC
:100060000C945D000C945D000C945D000C945D009C
:100070000C945D000C945D000C945D000C945D008C
:100080000C945D000C945D000C945D0011241FBE67
:10009000CFEFD0E1DEBFCDBF11E0A0E0B1E0E0E006
:1000A000F1E000E00BBF02C007900D92A030B10755
:1000B000D9F70E945F000C947E000C9400008FEF33
:1000C0008ABB41E350E060E971E0842F8A5C9A01C9
:1000D00020523040F901E49F9001E59F300DF49FDC
:1000E000300D1124820F4F5F5F4F8BBB88EE93E082
:1000F000FB013197F1F70197D9F7E7CFF894FFCFDC
:00000001FF
