:100000000C9446000C945D000C945D000C945D0013
:100010000C945D000C945D000C945D000C945D00EC
:100020000C945D000C945D000C945D000C945D00DC
:100030000C945D000C945D000C945D000C945D00CC
:100040000C945D000C945D000C945D000C945D00BC
:100050000C945D000C945D000C945D000C945D00AC
:100060000C945D000C945D000C945D000C945D009C
:100070000C945D000C945D000C945D000C945D008C
:100080000C945D000C945D000C945D0011241FBE67
:10009000CFEFD0E1DEBFCDBF11E0A0E0B1E0EAEDEF
:1000A000F2E000E00BBF02C007900D92A431B1074F
:1000B000D9F70E945F000C946B010C9400002F9202
:1000C0003F924F925F926F927F928F929F92AF92E8
:1000D000BF92CF92DF92EF92FF920F931F93DF9325
:1000E000CF93CDB7DEB763970FB6F894DEBF0FBEE0
:1000F000CDBF8FEF8ABBDE011196E0E0F1E083E136
:1001000001900D928150E1F78FEF84BB8FE08093D7
:1001100064004989F2E3EF2EF12CEAEA2E2E8E01DB
:100120000F5F1F4F70E4A72E7FE1B72E60EEC62E43
:100130006EE2D62E58E0452E34E0532E22E0622E99
:100140007724739495E5392E9701225330402BBACA
:100150002F5F3F4FC90168EE73E00E945701CB014A
:100160006AE070E00E945701F801E80FF91F8081F2
:1001700085BB40926500C5010197F1F7C90164E6AE
:1001800070E00E945701CB016AE070E00E945701C5
:10019000F801E80FF91F8081842B85BB5092650020
:1001A000C6010197F1F7C9016AE070E00E945701AA
:1001B000CB016AE070E00E945701F801E80FF91FD7
:1001C000808185BB60926500C5010197F1F7C90187
:1001D0006AE070E00E945701F801E80FF91F808182
:1001E00085BB70926500C6010197F1F72E153F059A
:1001F00009F0AECF3BBA82E3882E912C820E931E7B
:100200002F5F3F4FC90168EE73E00E945701CB0199
:100210006AE070E00E945701F801E80FF91F808141
:1002200085BB40926500C5010197F1F7C90164E6FD
:1002300070E00E945701CB016AE070E00E94570114
:10024000F801E80FF91F8081842B85BB509265006F
:10025000C6010197F1F7C9016AE070E00E945701F9
:10026000CB016AE070E00E945701F801E80FF91F26
:10027000808185BB60926500C5010197F1F7C901D6
:100280006AE070E00E945701F801E80FF91F8081D1
:1002900085BB70926500C6010197F1F728153905F5
:1002A00009F0AECF84E690E0E80EF91E4DCFAA1B10
:1002B000BB1B51E107C0AA1FBB1FA617B70710F051
:1002C000A61BB70B881F991F5A95A9F78095909583
:0A02D000BC01CD010895F894FFCFA2
:1002DA003F065B4F666D7D277F6F777C395E79714C
:0402EA008040080048
:00000001FF
