:100000000C9446000C9465000C9465000C946500FB
:100010000C9465000C9465000C9465000C946500CC
:100020000C9465000C9465000C9465000C946500BC
:100030000C9465000C9465000C9465000C946500AC
:100040000C9465000C9465000C9465000C9465009C
:100050000C9465000C9465000C9465000C9465008C
:100060000C9465000C9465000C9465000C9465007C
:100070000C9465000C9465000C9465000C9465006C
:100080000C9465000C9465000C94650011241FBE4F
:10009000CFEFD0E1DEBFCDBF11E0A0E0B1E0E6E3FD
:1000A000F3E000E00BBF02C007900D92A431B1074E
:1000B000D9F711E0A4E1B1E001C01D92AA31B10766
:1000C000E1F70E9467000C9499010C940000BF9224
:1000D000CF92DF92EF92FF920F931F93CF93DF9314
:1000E0008FEC82B98FEF84BBBB24B394C0E4DFE113
:1000F00022E0C22E20EE3EE294E0D92E48E000E954
:1001000011E081E0E82EF12C809116019091170109
:10011000019709F045C080911401909115016AE0A2
:1001200070E00E947201FC01E050FF4F808185BBAE
:10013000B0926500CE010197F1F780911401909182
:1001400015016AE070E00E947201CB016AE070E084
:100150000E947201FC01E050FF4F808185BBC0927C
:100160006500C9010197F1F7809114019091150183
:1001700064E670E00E947201CB016AE070E00E94C8
:100180007201FC01E050FF4F808185BBD092650079
:10019000CE010197F1F7809114019091150144C0AF
:1001A00080911801909119016AE070E00E9472013B
:1001B000FC01E050FF4F808185BBB0926500CE010D
:1001C0000197F1F780911801909119016AE070E0B0
:1001D0000E947201CB016AE070E00E947201FC0192
:1001E000E050FF4F808185BBC0926500C901019737
:1001F000F1F7809118019091190164E670E00E9476
:100200007201CB016AE070E00E947201FC01E050D3
:10021000FF4F808185BBD0926500CE010197F1F739
:10022000809118019091190168EE73E00E947201AB
:10023000CB016AE070E00E947201FC01E050FF4FC8
:10024000808185BB40936500C9010197F1F78091DA
:10025000160190911701892B79F481B1803211F543
:10026000F0921701E092160188EE93E0F8013197C1
:10027000F1F70197D9F716C081B1803299F4109245
:10028000170110921601809114019091150190931D
:1002900019018093180188EE93E0F8013197F1F786
:1002A0000197D9F781B1803199F41092150110921C
:1002B0001401109217011092160110921901109258
:1002C000180188EE93E0F8013197F1F70197D9F71B
:1002D00080911401909115010196909315018093DE
:1002E000140112CF97FB092E07260AD077FD04D000
:1002F0000CD006D000201AF4709561957F4F0895B8
:10030000F6F7909581959F4F0895AA1BBB1B51E16D
:1003100007C0AA1FBB1FA617B70710F0A61BB70B75
:10032000881F991F5A95A9F780959095BC01CD011A
:060330000895F894FFCFD0
:100336003F065B4F666D7D277F6F777C395E7971EF
:0403460080400800EB
:00000001FF
