:100000000C9446000C9465000C9465000C946500FB
:100010000C9465000C9465000C9465000C946500CC
:100020000C9465000C9465000C9465000C946500BC
:100030000C9465000C9465000C9465000C946500AC
:100040000C9496020C9465000C9465000C94650069
:100050000C9465000C9465000C9465000C9465008C
:100060000C9465000C9465000C9465000C9465007C
:100070000C9465000C9465000C9465000C9465006C
:100080000C9465000C9465000C94650011241FBE4F
:10009000CFEFD0E1DEBFCDBF13E0A0E0B1E0E8E6F6
:1000A000F8E100E00BBF02C007900D92AC33B1073E
:1000B000D9F718E0ACE3B3E001C01D92A83CB1074A
:1000C000E1F70E94E7080C94320C0C9400005F9B4F
:1000D000FECF8CB108955D9BFECF8CB908958091C1
:1000E0009B0087FD02C080E0089580919C0081E024
:1000F000089580919B0087FFFCCF80919C0008951C
:10010000982F80919B0085FFFCCF90939C000895D1
:10011000EF92FF920F931F930097A1F5F901EE0F55
:10012000FF1FE20FF31FE75BFD4F8281880F8BB942
:100130001AB84115510519F41092950008C04130C4
:10014000510511F480E301C080E280939500809115
:100150009500866080939500F901EE0FFF1FE20F76
:10016000F31FE75BFD4F908181818093900099B9E7
:10017000012B09F0579AEF2809F0559A8AB1886146
:100180008AB945C0019719F02FEF3FEF42C0F9013E
:10019000EE0FFF1FE20FF31FE75BFD4F8281880F19
:1001A00080939B0010929A004115510519F410920A
:1001B0009D0008C04130510511F480E301C080E288
:1001C00080939D0080919D00866080939D00F90141
:1001D000EE0FFF1FE20FF31FE75BFD4F9081818160
:1001E0008093980090939900012B29F080919A00B8
:1001F000806880939A00EF2829F080919A008062AD
:1002000080939A0080919A00886180939A0020E000
:1002100030E0C9011F910F91FF90EF9008955D9B11
:10022000FECF8CB98A3021F45D9BFECF8DE08CB976
:1002300008955F9BFECF8CB108955D9BFECF8CB976
:100240008A3021F45D9BFECF8DE08CB908955F9BD1
:10025000FECF8CB1992787FD90952FEF8F3F9207A6
:10026000B1F32091A7042F3730F0E22FF0E0E95DE1
:10027000FB4F108208958830910589F4222339F3C9
:1002800088E00E940F0180E20E940F0188E00E9436
:100290000F018091A70481508093A704D8CF8A30A2
:1002A000910519F08D30910579F48AE00E940F01D3
:1002B0008DE00E940F01E091A704F0E0E95DFB4FA3
:1002C00010821092A7040895E22FF0E0E95DFB4F41
:1002D00080832F5F2093A7040E940F01B8CF20E8EE
:1002E0003EE392B7492F481B241B3109892F121670
:1002F0001306BCF30895AC0192B70FC0892F20E814
:100300003EE392B7692F681B261B310912161306AC
:1003100014F4892FF6CF415050404115510571F723
:100320000895FF920F931F93CF93DF9312BE81E046
:1003300083BFFAB28FEF8ABBC0E0D0E001E010E0EB
:10034000C8010C2E02C0880F991F0A94E2F78BBBDC
:1003500084EF91E00E947B012196C830D10581F79E
:10036000FABA13BEDF91CF911F910F91FF900895BC
:10037000DF93CF9300D000D0CDB7DEB79C011C82B5
:100380001B8212C01A82198205C089819A81019646
:100390009A83898389819A818F5F9F4FB1F78B817F
:1003A0009C8101969C838B838B819C818217930710
:1003B00048F30F900F900F900F90CF91DF91089519
:1003C00083E082BB80B58B7F80BD1092710080E29C
:1003D0008093700084E4809374000895DF93CF933A
:1003E00000D0CDB7DEB71A82198284EA80937400F8
:1003F0000DC089819A8101969A83898389819A8126
:100400008050904118F020E030E473C08091740077
:1004100087FFEFCF80917100887F883009F059C045
:1004200089E98093730084E8809374001A821982AA
:100430000DC089819A8101969A83898389819A81E5
:100440008050904118F021E030E453C08091740056
:1004500087FFEFCF80917100887F8034D1F584ECE5
:10046000809374001A8219820DC089819A81019645
:100470009A83898389819A818050904118F022E083
:1004800030E437C08091740087FFEFCF8091710016
:10049000887F8035F1F44091730084E88093740084
:1004A0001A8219820DC089819A8101969A83898363
:1004B00089819A818050904118F023E030E419C07E
:1004C0008091740087FFEFCF80917100887F88351D
:1004D00019F020E030E80DC080917300342F20E047
:1004E00044E94093740090E0282B392B232F330FDD
:1004F000330BC9010F900F90CF91DF91089517B87A
:1005000082E886B9089597B1907E97B997B18770C0
:10051000892B87B9369A349BFECF24B145B1942FED
:1005200080E030E0282B392BC90108951F920F92EB
:100530000FB60F9211248F939F93909126049923C5
:1005400011F480E101C080E088BB10922604992359
:1005500019F481E0809326048091C1089091AC0445
:10056000882349F0892F8F5F8093AC048F3F61F41B
:100570001092C10809C0892F81508093AC04882350
:1005800019F481E08093C1088091AC0482BF9F91EF
:100590008F910F900FBE0F901F90189580E187BB31
:1005A00084E083BF91E09093AC0492BF87B78160F1
:1005B00087BF109226049093C10878945F9BFECF6A
:1005C0008CB18137D9F713BE089580EE88BB909126
:1005D0003C0320913D0330E041E070E460E852E0EC
:1005E000222389F40C9913C08BB384278BBB33234C
:1005F00011F068BB01C078BB80E0332309F481E0CF
:10060000382F21E004C0213011F40C9920E0992307
:1006100039F40D99E5CF8BB385278BBB91E0E0CF03
:100620009130F1F681B190E0E5E096958795EA95F5
:10063000E1F7982F91709427D3CFFC0107C0892F41
:1006400081568A3110F4905290833196908199238B
:10065000B1F70895CF93DF93EC010E941D0340E0B2
:1006600050E022C09C01205330402A30310510F464
:10067000C90112C09C012062C901815690400697B1
:1006800020F4C9018755904007C0C90181549040AA
:10069000069770F4C901C797F4E0440F551FFA9507
:1006A000E1F7480F591F2196888190E00097D1F615
:1006B000CA01DF91CF910895CF93DF93EC010E949F
:1006C0001D0320E030E013C0CA01C0978A309105B5
:1006D00008F4AC01C901B3E0880F991FBA95E1F79E
:1006E000220F331F280F391F240F351F21968881B1
:1006F000482F50E04115510539F7C901DF91CF91DD
:100700000895FC018081803341F48181883729F488
:10071000CF0102960E942A030895CF010E945C0334
:10072000089542B79C0184E0220F331F8A95E1F7B8
:1007300006C092B7892F841B281B3109492F121636
:100740001306BCF3842F0895482FC798C69815BA8E
:1007500082E28BBBC598C59AC69A20E030E006C0FD
:1007600095BB4BBBC598C59A2F5F3F4F26173707E0
:10077000B8F3C79A0895C79895BB8BBBC698C59820
:10078000C59AC69A75BB6BBBC598C59AC79A08959A
:10079000C79895BB8BBBC698C598C59AC69A14BA1C
:1007A0001ABAC49882B720E130E092B7492F481BAB
:1007B000241B3109892F12161306BCF389B3C49A7E
:1007C000C49882B720E130E092B7492F481B241B20
:1007D0003109892F12161306BCF389B3C49AC79A3C
:1007E0009FEF94BB9ABB0895FF920F931F93382FEE
:1007F000062F142FF22E83E090E0632F70E00E940A
:10080000BB0385E090E0612F70E00E94BB0387E0AE
:1008100090E0602F70E00E94BB0389E090E06F2DB4
:1008200070E00E94BB031F910F91FF90089595986F
:1008300084E190E00E947B01959A84E190E00E941F
:100840007B0180E690E060E070E00E94BB0381E6FF
:1008500090E066E070E00E94BB0382E690E060E01A
:1008600070E00E94BB0383E690E069ED70E00E94B7
:10087000BB0383E790E060E770E00E94BB0380E485
:1008800090E060E270E00E94BB0381E490E061E4EC
:1008900070E00E94BB0382E490E061E470E00E949B
:1008A000BB0383E490E061E070E00E94BB0384E45A
:1008B00090E064E370E00E94BB0385E490E062E0B6
:1008C00070E00E94BB0386E490E068E070E00E9464
:1008D000BB0387E490E061ED70E00E94BB0388E415
:1008E00090E065E070E00E94BB0380E590E067E681
:1008F00070E00E94BB0381E590E060E070E00E9440
:10090000BB0382E590E067E270E00E94BB0383E5F1
:1009100090E06BE070E00E94BB0384E590E063E848
:1009200070E00E94BB0385E590E06EE070E00E94FD
:10093000BB0386E590E061E070E00E94BB0387E5C1
:1009400090E067E370E00E94BB038FE190E063E01A
:1009500070E00E94BB0380E290E062E070E00E94E1
:10096000BB0384E290E06CE170E00E94BB0385E28F
:1009700090E064E370E00E94BB0383E290E064E5F2
:1009800070E00E94BB0388E190E064E470E00E94A4
:10099000BB038BE190E064E470E00E94BB0381E262
:1009A00090E061E070E00E94BB0381E090E060E0D5
:1009B00070E00E94BB038CE190E063E070E00E9475
:1009C000BB0389E190E066E070E00E94BB038AE02F
:1009D00090E00E947B0187E190E065E070E00E947A
:1009E000BB0386E290E064E870E00E94BB0380E510
:1009F00090E00E947B0186E290E068EB70E00E944C
:100A0000BB0380E590E00E947B0186E290E06CEB06
:100A100070E00E94BB0382E090E060E070E00E9422
:100A2000BB0383E090E060E070E00E94BB0384E0E1
:100A300090E060E070E00E94BB0385E090E06BED29
:100A400070E00E94BB0386E090E060E070E00E94EE
:100A5000BB0387E090E060E070E00E94BB0388E0A9
:100A600090E060E070E00E94BB0389E090E06FEAF4
:100A700070E00E94BB0386E190E068EA70E00E94AB
:100A8000BB0308958F929F92AF92BF92CF92DF9255
:100A9000EF92FF920F931F934C016B015A01790162
:100AA00083E090E0B4010E94BB0385E090E0B501D3
:100AB0000E94BB0387E090E0B6010E94BB0389E07F
:100AC00090E0B7010E94BB0381E090E09C012C19EB
:100AD0003D092E0D3F1D881999098A0D9B1D289FE0
:100AE000B001299F700D389F700D1124C8010E941C
:100AF000A4031F910F91FF90EF90DF90CF90BF90D4
:100B0000AF909F908F9008950F931F938FEF8ABBA4
:100B100084BB87EF87BB80E681BB80EF88BB80B555
:100B2000826080BD82B3806682BB12BE81E083BFDB
:100B30000E941704969880E090E060E070E04BED32
:100B400050E020EB30E000E018EF0E94420588EE14
:100B500093E00E947B0180E090E060E070E04BED6C
:100B600050E020EB30E000EE17E00E94420588EEF6
:100B700093E00E947B0180E090E060E070E04BED4C
:100B800050E020EB30E00FE110E00E94420588EEDB
:100B900093E00E947B01CFCF8FB9779BFECF8FB1BF
:100BA0000895C0988FB9779BFECF8FB11FB8779B00
:100BB000FECF9FB11FB8779BFECF8FB1392F20E0BA
:100BC000280F311DC09A93E0369527959A95E1F745
:100BD000C9010895B89A81E58DB91EB880E00E94D8
:100BE000D1050895FF920F931F931092B0081092B1
:100BF000AF081092A9041092A804FF24849939C068
:100C00000091AF081091B00880ED0E94D105080F47
:100C1000191F1093B0080093AF0882B720EA30E0A4
:100C200092B7492F481B241B3109892F121613062E
:100C3000BCF384991EC00091A8041091A90480E916
:100C40000E94D105080F191F1093A9040093A8044E
:100C500082B720EA30E092B7492F481B241B3109A4
:100C6000892F12161306BCF3F39480E1F81631F6BF
:100C700008C01092B0081092AF081092A904109208
:100C8000A8048091AF089091B00834E096958795BC
:100C90003A95E1F79093B0088093AF088091A8044B
:100CA0009091A90424E0969587952A95E1F7909371
:100CB000A9048093A8041F910F91FF9008950F93AA
:100CC0001F93CF93DF938B0120EF27BB20E621BB3F
:100CD000039709F062C0FB01C281D381CE0160E0BD
:100CE00071E00E943509009761F4F80184819581D3
:100CF00066E071E00E943509009711F4959A01C0F1
:100D00009598CE0169E071E00E943509009761F481
:100D1000F8018481958166E071E00E9435090097B1
:100D200011F4C49A01C0C498CE016CE071E00E9435
:100D30003509009761F4F8018481958166E071E0DE
:100D40000E943509009711F4C59A01C0C598CE01DB
:100D50006FE071E00E943509009761F4F801848129
:100D6000958166E071E00E943509009711F4C69AFA
:100D700001C0C698CE0162E171E00E94350900977A
:100D800061F4F8018481958166E071E00E94350983
:100D9000009711F4C79A01C0C798DF91CF911F91B6
:100DA0000F910895FB0120E421BB029759F4828141
:100DB000938166E071E00E943509009711F49698DE
:100DC0000895969A08951F9311E05F9B05C05F9B5D
:100DD000FECF8CB1813749F180913F03882341F4E4
:100DE0000C9906C010933F0385E191E00E945709DA
:100DF00080913E03882341F40D9906C010933E0371
:100E00008FE191E00E94570980913F03813021F4E6
:100E10000C9B02C010923F0380913E038130A9F6E3
:100E20000D9BD3CF10923E03D0CF1F9108950F9307
:100E30001F93CF93DF938FEF84BB8FE08093640089
:100E400000E010E0C1E0D0E05F9B03C08CB18137CF
:100E5000F1F0CE01012E02C0880F991F0A94E2F72B
:100E600080936500802F6AE00E942909E92FF0E055
:100E7000EF5CFC4F808185BB8AE090E00E94B80166
:100E80001F5F143008F010E00F5F0A30E9F689E2C6
:100E900091E00E945709DF91CF911F910F91089522
:100EA00017B882E886B980E00E94830200D000D0A3
:100EB00029E331E0EDB7FEB7328321839483838346
:100EC0000E9445090F900F900F900F9008950E9477
:100ED000E0010E94EE019C0180FD03C040E050E073
:100EE00002C045E050E000D000D000D0EDB7FEB722
:100EF000319689E491E0ADB7BEB712969C938E937C
:100F000011973595279533832283558344830E9417
:100F100045098DB79EB706960FB6F8949EBF0FBED3
:100F20008DBF0895EF92FF920F931F93CF93DF939E
:100F3000EB01039771F58A819B810E948103F82E52
:100F4000E92E8C819D810E948103182F092F8F2DFE
:100F50009E2D612F702F0E94BB0300D000D000D0C7
:100F6000EDB7FEB7319688E591E0ADB7BEB7129602
:100F70009C938E931197F282E382148305830E94DF
:100F800045098DB79EB706960FB6F8949EBF0FBE63
:100F90008DBFDF91CF911F910F91FF90EF9008953A
:100FA0000F931F93FB01029721F5828193810E9489
:100FB0008103182F092F0E94C80300D000D000D051
:100FC000EDB7FEB7319624E731E0ADB7BEB7129664
:100FD0003C932E93119712830383848315820E947E
:100FE00045098DB79EB706960FB6F8949EBF0FBE03
:100FF0008DBF1F910F910895EF92FF920F931F9352
:10100000CF93DF9380E991E00E94570987EC91E04C
:101010000E94570984EE91E00E94570901E013E015
:101020007AE0E72EF12CD8018D919C91892BC1F1AA
:1010300080E20E940F01F801C081D18103C0219696
:101040000E940F0188818823D1F7C0E0D0E004C05E
:1010500080E20E940F012196D801EC911196FC913B
:10106000DF010D900020E9F71197AE1BBF0BC70100
:101070008A1B9B0BC817D90758F3F801C481D58187
:1010800003C021960E940F0188818823D1F78AE04E
:101090000E940F018DE00E940F010A5F1F4FC3CF16
:1010A00084EE91E00E945709DF91CF911F910F913B
:1010B000FF90EF900895AF92BF92CF92DF92EF92A0
:1010C000FF920F931F93CF93DF935C016B017C0121
:1010D000C0E0D0E060E070E001E010E005C00894FE
:1010E000E11CF11C0F5F1F4F980121503040F701A8
:1010F0008081882321F08A3011F08D3011F5FE01B6
:10110000EE0FFF1F6217730761F0EC0DFD1D6A0DF6
:101110007B1D808191810E943E092196FE01EE0F88
:10112000FF1FEC0DFD1D11821082CE01DF91CF91CA
:101130001F910F91FF90EF90DF90CF90BF90AF90F5
:101140000895803211F0893051F6F7011082FE01C6
:10115000EE0FFF1FEC0DFD1D6A0D7B1D808191813F
:101160000E943E092196B801BACF0F931F93CF93E7
:10117000DF93E0E4F3E084E593E081939193459677
:1011800023E0E435F207C9F7749787E294E0BF01E2
:101190000E945B088C01C1E0D3E068817981611510
:1011A000710581F080914003909141030E943509BF
:1011B000009731F4EA81FB81C80160E473E009958E
:1011C0002696EBCFDF91CF911F910F910895EF926B
:1011D000FF920F931F9384E692E09093C50880934B
:1011E000C40880E090E060E070E040E050E021E082
:1011F00030E000E010E0EE24FF240E94880000D0E0
:1012000000D08BE192E0EDB7FEB79283818380E856
:1012100095E2948383830E9445090F900F900AE31F
:1012200012E0EDB7FEB7128301830E9445090F90CB
:101230000F90F02E012F0E9427010E94B50800D0C8
:10124000EDB7FEB7F18202830E9445090F900F901F
:10125000F2CF991B79E004C0991F961708F0961BEE
:10126000881F7A95C9F780950895FB01DC018D915F
:10127000019080190110D9F3990B0895FB01DC014D
:1012800001900D920020E1F70895DF93CF93CDB741
:10129000DEB7FE013596619171918091C4089091FD
:1012A000C508AF010E948C09CF91DF9108950F937B
:1012B0001F93CF93DF938C01E091C408F091C50890
:1012C000838181FF21C0C0E0D0E00DC0E091C4085F
:1012D000F091C50820853185BF01F9010995892B59
:1012E00011F0CFEFDFEFF80181918F01882371F7C3
:1012F000E091C408F091C508208531858AE0BF01DE
:10130000F9010995892B11F0CFEFDFEFCE01DF91C5
:10131000CF911F910F9108952F923F924F925F921C
:101320006F927F928F929F92AF92BF92CF92DF92F5
:10133000EF92FF920F931F93DF93CF93CDB7DEB75A
:101340002B970FB6F894DEBF0FBECDBF3C012B012B
:101350005A01FC0117821682838181FD03C06FEF61
:101360007FEFC6C19AE0892E1E010894211C311C12
:10137000F3012381F20123FD859123FF81912F0148
:10138000882309F4B2C1853239F423FD859123FF06
:1013900081912F01853229F490E0B3010E94A80BBE
:1013A000E7CF982FFF24EE249924FFE1FF15D0F01A
:1013B0009B3269F09C3228F4903259F0933291F4C8
:1013C0000EC09D3249F0903369F441E024C052E0F0
:1013D000F52A84E0F82A28C098E0F92A25C0E0E13F
:1013E000FE2A22C0F7FC29C0892F80538A3070F46E
:1013F000F6FE05C0989C902C1124980E15C0E89C10
:10140000E02C1124E80EF0E2FF2A0EC09E3229F4EF
:10141000F6FC6BC140E4F42A07C09C3619F450E88E
:10142000F52A02C0983649F4F20123FD959123FF75
:1014300091912F01992309F0B8CF892F85548330DA
:1014400018F08052833038F444E050E0A40EB51E0A
:101450005FE359830FC0933631F0933779F09335BA
:1014600009F056C020C0F5018081898342E050E038
:10147000A40EB51E610101E010E012C0F501C080AC
:10148000D180F6FC03C06FEF7FEF02C0692D70E0E2
:1014900042E050E0A40EB51EC6010E949D0B8C01D7
:1014A0005FE7F52214C0F501C080D180F6FC03C0CF
:1014B0006FEF7FEF02C0692D70E042E050E0A40EB4
:1014C000B51EC6010E94920B8C0150E8F52AF3FE6E
:1014D00007C01AC080E290E0B3010E94A80BEA9412
:1014E0008E2D90E008171907A8F30EC0F601F7FC3F
:1014F0008591F7FE81916F0190E0B3010E94A80BE6
:10150000E110EA94015010400115110579F7EAC085
:10151000943611F0993669F5F7FE08C0F50120817F
:1015200031814281538184E090E00AC0F5018081DD
:1015300091819C01442737FD4095542F82E090E033
:10154000A80EB91E9FE6F92257FF09C05095409595
:10155000309521953F4F4F4F5F4FE0E8FE2ACA017B
:10156000B901A1012AE030E00E94D40BD82ED21894
:1015700040C0953729F41F2D1F7E2AE030E01DC0A2
:101580001F2D197F9F3661F0903720F4983509F0B0
:10159000ACC00FC0903739F0983709F0A6C004C02E
:1015A00028E030E00AC0106114FD146020E130E052
:1015B00004C014FD166020E132E017FF08C0F501F9
:1015C000608171818281938144E050E008C0F5011F
:1015D00080819181BC0180E090E042E050E0A40E67
:1015E000B51EA1010E94D40BD82ED2188FE7F82E79
:1015F000F122F6FE0BC05EEFF522D91438F4F4FEAA
:1016000007C0F2FC05C08FEEF82202C01D2D01C0FC
:10161000192DF4FE0DC0FE01ED0DF11D808180330A
:1016200019F499EEF92208C01F5FF2FE05C003C04D
:101630008F2D867809F01F5F0F2DF3FC14C0F0FE8C
:101640000FC01E1510F09D2C0BC09D2C9E0C911AE6
:101650001E2D06C080E290E0B3010E94A80B1F5F20
:101660001E15C0F304C01E1510F4E11A01C0EE24CB
:1016700004FF0FC080E390E0B3010E94A80B02FFBB
:101680001DC001FD03C088E790E00EC088E590E032
:101690000BC0802F867891F001FF02C08BE201C061
:1016A00080E2F7FC8DE290E0B3010E94A80B06C037
:1016B00080E390E0B3010E94A80B9A94D914C0F380
:1016C000DA94F101ED0DF11D808190E0B3010E94EB
:1016D000A80BDD20A9F706C080E290E0B3010E94CC
:1016E000A80BEA94EE20C1F743CEF301668177811F
:1016F000CB012B960FB6F894DEBF0FBECDBFCF91B6
:10170000DF911F910F91FF90EF90DF90CF90BF90EE
:10171000AF909F908F907F906F905F904F903F9091
:101720002F900895FC010590615070400110D8F78A
:10173000809590958E0F9F1F0895FC016150704019
:1017400001900110D8F7809590958E0F9F1F0895F6
:101750000F931F93CF93DF938C01EB018B8181FF5C
:101760001BC082FF0DC02E813F818C819D81281777
:10177000390764F4E881F9810193F983E88306C0AD
:10178000E885F985802F0995892B31F48E819F8119
:1017900001969F838E8302C00FEF1FEFC801DF9178
:1017A000CF911F910F910895FA01AA27283051F186
:1017B000203181F1E8946F936E7F6E5F7F4F8F4F82
:1017C0009F4FAF4FB1E03ED0B4E03CD0670F781FE1
:1017D000891F9A1FA11D680F791F8A1F911DA11DC6
:1017E0006A0F711D811D911DA11D20D009F46894FF
:1017F0003F912AE0269F11243019305D3193DEF6A7
:10180000CF010895462F4770405D4193B3E00FD05C
:10181000C9F7F6CF462F4F70405D4A3318F0495D47
:1018200031FD4052419302D0A9F7EACFB4E0A6952A
:101830009795879577956795BA95C9F7009761054C
:10184000710508959B01AC010A2E069457954795A2
:1018500037952795BA95C9F7620F731F841F951F97
:08186000A01D0895F894FFCFCC
:101868007265736574006F6E00726400777200723F
:1018780073006373004230207075736865640042BA
:10188800312070757368656400656E64206F66202A
:10189800666E642074657374004C696768742041CF
:1018A8004443203D2025640A0054454D50203D20E6
:1018B80025642E25640A0D004C434420777220616C
:1018C800646472203D2025782064617461203D2085
:1018D80025780A004C4344207264206164647220B5
:1018E8003D2025782064617461203D2025780A0018
:1018F8002D2D2D2D2D2D2D2D2D2D2D2D2D2D3C200E
:10190800537570706F7274656420436F6D6D616E8E
:101918006473203E2D2D2D2D2D2D2D2D2D2D2D2D6E
:101928002D2D2D2D2D2D002020434D44202020200D
:101938002020202020202020446573637269707461
:10194800696F6E002D2D2D2D2D2D2D2D2D2D2D2D2D
:101958002D2D2D2D2D2D2D2D2D2D2D2D2D2D2D2DAF
:101968002D2D2D2D2D2D2D2D2D2D2D2D2D2D2D2D9F
:101978002D2D2D2D2D2D2D2D2D2D0048656C6C6FA9
:1019880020556172743020776F726B7320617420F8
:1019980025642062617564200A006D6F6E69746F3A
:1019A800722D31323820242000A001016700003355
:1019B80000001900002200011000010100000000D1
:1019C8000003000000000002000000001D010000EC
:1019D800000068656C7000446973706C61792074EC
:1019E80068652068656C70206D6573736167650054
:1019F8006C6564004C4544207465737400666E64BD
:101A080000464E4420746573740074656D7000540C
:101A1800656D70657261747572652074657374287C
:101A280069326329006C6967687400434453207401
:101A380065737428414443302900746F6E650054FF
:101A48004F4E452047656E657261746F720062750E
:101A580074746F6E00425554544F4E2074657374FD
:101A6800007202FC0777029002910194029D02170E
:101A780007A102AA026707AF02C5025007CB02DA24
:101A880002CE02DF02EE02E306F5020000000000CB
:0C1A9800003F065B4F666D7D077F6F000E
:00000001FF
