:100000000C9446000C945D000C945D000C945D0013
:100010000C945D000C945D000C945D000C945D00EC
:100020000C945D000C945D000C945D000C945D00DC
:100030000C945D000C945D000C945D000C945D00CC
:100040000C945D000C945D000C945D000C945D00BC
:100050000C945D000C945D000C945D000C945D00AC
:100060000C945D000C945D000C945D000C945D009C
:100070000C945D000C945D000C945D000C945D008C
:100080000C945D000C945D000C945D0011241FBE67
:10009000CFEFD0E1DEBFCDBF11E0A0E0B1E0ECE2F8
:1000A000F4E000E00BBF02C007900D92A030B10752
:1000B000D9F70E9496000C9414020C940000DF9370
:1000C000CF9300D000D000D0CDB7DEB71A8219820E
:1000D0001FC01C821B8212C01E821D8205C08D8122
:1000E0009E8101969E838D838D819E81885E934043
:1000F000B4F38B819C8101969C838B838B819C8143
:10010000885E93404CF389819A8101969A83898312
:1001100089819A81885E9340E4F226960FB6F8941E
:10012000DEBF0FBECDBFCF91DF9108958FEF8ABBA9
:100130008BBB80E197E220E931E0F9013197F1F7DB
:100140000197D9F71BBA80E197E220E931E0F90184
:100150003197F1F70197D9F780E88BBB80E197E2FF
:1001600020E931E0F9013197F1F70197D9F71BBA8E
:1001700080E197E220E931E0F9013197F1F7019749
:10018000D9F780E48BBB80E197E220E931E0F90107
:100190003197F1F70197D9F71BBA80E197E220E98F
:1001A00031E0F9013197F1F70197D9F780E28BBB84
:1001B00080E197E220E931E0F9013197F1F7019709
:1001C000D9F71BBA80E197E220E931E0F9013197D4
:1001D000F1F70197D9F780E18BBB80E197E220E945
:1001E00031E0F9013197F1F70197D9F71BBA80E1B6
:1001F00097E220E931E0F9013197F1F70197D9F75A
:1002000088E08BBB80E197E220E931E0F90131978A
:10021000F1F70197D9F71BBA80E197E220E931E0C5
:10022000F9013197F1F70197D9F784E08BBB80E1B1
:1002300097E220E931E0F9013197F1F70197D9F719
:100240001BBA80E197E220E931E0F9013197F1F73B
:100250000197D9F782E08BBB80E197E220E931E09A
:10026000F9013197F1F70197D9F71BBA80E197E2CD
:1002700020E931E0F9013197F1F70197D9F781E0F1
:100280008BBB80E197E220E931E0F9013197F1F78A
:100290000197D9F71BBA80E197E220E931E0F90133
:1002A0003197F1F70197D9F78AEA8BBB80E197E2A2
:1002B00020E931E0F9013197F1F70197D9F71BBA3D
:1002C00080E197E220E931E0F9013197F1F70197F8
:1002D000D9F785E58BBB80E197E220E931E0F901B0
:1002E0003197F1F70197D9F71BBA80E197E220E93E
:1002F00031E0F9013197F1F70197D9F78CEC8BBB1D
:1003000080E197E220E931E0F9013197F1F70197B7
:10031000D9F71BBA80E197E220E931E0F901319782
:10032000F1F70197D9F783E38BBB80E197E220E9EE
:1003300031E0F9013197F1F70197D9F71BBA80E164
:1003400097E220E931E0F9013197F1F70197D9F708
:1003500081E88BBB80E197E220E931E0F901319738
:10036000F1F70197D9F71BBA80E197E220E931E074
:10037000F9013197F1F70197D9F783EC8BBB80E155
:1003800097E220E931E0F9013197F1F70197D9F7C8
:100390001BBA80E197E220E931E0F9013197F1F7EA
:1003A0000197D9F787EE8BBB80E197E220E931E036
:1003B000F9013197F1F70197D9F71BBA80E197E27C
:1003C00020E931E0F9013197F1F70197D9F781E49C
:1003D0008BBB80E197E220E931E0F9013197F1F739
:1003E0000197D9F71BBA80E197E220E931E0F901E2
:1003F0003197F1F70197D9F78FE38BBB80E197E253
:1004000020E931E0F9013197F1F70197D9F71BBAEB
:1004100080E197E220E931E0F9013197F1F70197A6
:0C042000D9F70E945F000895F894FFCF08
:00000001FF
