:100000000C9446000C945D000C945D000C945D0013
:100010000C945D000C945D000C945D000C945D00EC
:100020000C945D000C945D000C945D000C945D00DC
:100030000C945D000C945D000C945D000C945D00CC
:100040000C945D000C945D000C945D000C945D00BC
:100050000C945D000C945D000C945D000C945D00AC
:100060000C945D000C945D000C945D000C945D009C
:100070000C945D000C945D000C945D000C945D008C
:100080000C945D000C945D000C945D0011241FBE67
:10009000CFEFD0E1DEBFCDBF11E0A0E0B1E0EAE1FB
:1000A000F1E000E00BBF02C007900D92A030B10755
:1000B000D9F70E945F000C948B000C9400008FEF26
:1000C0008ABB8BBB80E197E220E931E0F9013197EF
:1000D000F1F70197D9F780E88BBB80E197E220E93F
:1000E00031E0F9013197F1F70197D9F75AEA20E9A0
:1000F00031E045E55BBB88E893E1F9013197F1F721
:100100000197D9F74BBB88E893E1F9013197F1F7F3
:0A0110000197D9F7EFCFF894FFCF65
:00000001FF
