:100000000C9446000C945D000C945D000C945D0013
:100010000C945D000C945D000C945D000C945D00EC
:100020000C945D000C945D000C945D000C945D00DC
:100030000C945D000C945D000C945D000C945D00CC
:100040000C945D000C945D000C945D000C945D00BC
:100050000C945D000C945D000C945D000C945D00AC
:100060000C945D000C945D000C945D000C945D009C
:100070000C945D000C945D000C945D000C945D008C
:100080000C945D000C945D000C945D0011241FBE67
:10009000CFEFD0E1DEBFCDBF11E0A0E0B1E0EAE3F9
:1000A000F2E000E00BBF02C007900D92A431B1074F
:1000B000D9F70E945F000C941B010C9400002F9252
:1000C0003F924F925F926F927F928F929F92AF92E8
:1000D000BF92CF92DF92EF92FF920F931F93DF9325
:1000E000CF93CDB7DEB763970FB6F894DEBF0FBEE0
:1000F000CDBFDE011196E0E0F1E083E101900D92C9
:100100008150E1F78FEF84BB8FE080936400AA24D5
:10011000BB2400E010E0CC24DD24EE24FF2420E00A
:1001200030E04E010894811C911C50E4452E5FE1A3
:10013000552E44E0242E90EE692E9EE2792E82E028
:10014000382E41E02F5F3F4F2436310529F40894C3
:10015000A11CB11C20E030E0C5016AE070E00E9403
:100160000701DC01009729F42115310511F40F5F17
:100170001F4F0630110529F40894C11CD11C00E062
:1001800010E08AE0C816D10429F40894E11CF11C9F
:10019000CC24DD2486E0E816F10411F4EE24FF24DB
:1001A000F401EE0DFF1D808185BB88E08093650022
:1001B000C2010197F1F7F401EC0DFD1D808180581B
:1001C00085BB20926500C3010197F1F72A31310503
:1001D00050F0C9014A97499708F4B4CFC901C397B1
:1001E000499708F0AFCFF401E00FF11F808185BB84
:1001F00030926500C2010197F1F7A80DB91D8C91ED
:1002000085BB40936500C3010197F1F79BCFAA1B03
:10021000BB1B51E107C0AA1FBB1FA617B70710F0F1
:10022000A61BB70B881F991F5A95A9F78095909523
:0A023000BC01CD010895F894FFCF42
:10023A003F065B4F666D7D277F6F777C395E7971EC
:04024A0080400800E8
:00000001FF
