:100000000C9446000C945D000C945D000C945D0013
:100010000C945D000C945D000C945D000C945D00EC
:100020000C945D000C945D000C945D000C945D00DC
:100030000C945D000C945D000C945D000C945D00CC
:100040000C945D000C945D000C945D000C945D00BC
:100050000C945D000C945D000C945D000C945D00AC
:100060000C945D000C945D000C945D000C945D009C
:100070000C945D000C945D000C945D000C945D008C
:100080000C945D000C945D000C945D0011241FBE67
:10009000CFEFD0E1DEBFCDBF11E0A0E0B1E0E0E501
:1000A000F4E000E00BBF02C007900D92A030B10752
:1000B000D9F70E945F000C9426020C9400008FEF89
:1000C0008ABB8BBB80E197E220E931E0F9013197EF
:1000D000F1F70197D9F71BBA80E197E220E931E007
:1000E000F9013197F1F70197D9F788E08BBB88EEDA
:1000F00093E020E931E0F9013197F1F70197D9F761
:100100001BBA80E49CE90197F1F780E28BBB88EE93
:1001100093E020E931E0F9013197F1F70197D9F740
:100120001BBA80E49CE90197F1F780E28BBB80ED7C
:1001300097E020E931E0F9013197F1F70197D9F71C
:100140001BBA80E49CE90197F1F780E18BBB88EE54
:1001500093E020E931E0F9013197F1F70197D9F700
:100160001BBA80E49CE90197F1F780E48BBB88EE31
:1001700093E020E931E0F9013197F1F70197D9F7E0
:100180001BBA80E49CE90197F1F780E48BBB80ED1A
:1001900097E020E931E0F9013197F1F70197D9F7BC
:1001A0001BBA80E49CE90197F1F780E88BBB88EEED
:1001B00093E020E931E0F9013197F1F70197D9F7A0
:1001C0001BBA80E49CE90197F1F780E48BBB88EED1
:1001D00093E020E931E0F9013197F1F70197D9F780
:1001E0001BBA80E49CE90197F1F780E28BBB88EEB3
:1001F00093E020E931E0F9013197F1F70197D9F760
:100200001BBA80E49CE90197F1F780E18BBB88EE93
:1002100093E020E931E0F9013197F1F70197D9F73F
:100220001BBA80E49CE90197F1F788E08BBB88EE6C
:1002300093E020E931E0F9013197F1F70197D9F71F
:100240001BBA80E49CE90197F1F788E08BBB88EE4C
:1002500093E020E931E0F9013197F1F70197D9F7FF
:100260001BBA80E49CE90197F1F788E08BBB80ED35
:1002700097E020E931E0F9013197F1F70197D9F7DB
:100280001BBA80E49CE90197F1F788E08BBB88EE0C
:1002900093E020E931E0F9013197F1F70197D9F7BF
:1002A0001BBA80E49CE90197F1F780E28BBB88EEF2
:1002B00093E020E931E0F9013197F1F70197D9F79F
:1002C0001BBA80E49CE90197F1F780E28BBB88EED2
:1002D00093E020E931E0F9013197F1F70197D9F77F
:1002E0001BBA80E49CE90197F1F780E28BBB88EEB2
:1002F00093E020E931E0F9013197F1F70197D9F75F
:100300001BBA80E49CE90197F1F780E18BBB88EE92
:1003100093E020E931E0F9013197F1F70197D9F73E
:100320001BBA80E49CE90197F1F780E48BBB88EE6F
:1003300093E020E931E0F9013197F1F70197D9F71E
:100340001BBA80E49CE90197F1F780E48BBB80ED58
:1003500097E020E931E0F9013197F1F70197D9F7FA
:100360001BBA80E49CE90197F1F780E88BBB88EE2B
:1003700093E020E931E0F9013197F1F70197D9F7DE
:100380001BBA80E49CE90197F1F780E28BBB88EE11
:1003900093E020E931E0F9013197F1F70197D9F7BE
:1003A0001BBA80E49CE90197F1F788E08BBB88EEEB
:1003B00093E020E931E0F9013197F1F70197D9F79E
:1003C0001BBA80E49CE90197F1F788E08BBB88EECB
:1003D00093E020E931E0F9013197F1F70197D9F77E
:1003E0001BBA80E49CE90197F1F780E28BBB88EEB1
:1003F00093E020E931E0F9013197F1F70197D9F75E
:100400001BBA80E49CE90197F1F780E28BBB88EE90
:1004100093E020E931E0F9013197F1F70197D9F73D
:100420001BBA80E49CE90197F1F780E28BBB80ED79
:1004300097E020E931E0F9013197F1F70197D9F719
:100440001BBA80E49CE90197F1F70895F894FFCF77
:00000001FF
